:020000040800F2
:100000002805002001010008090100080B01000873
:100010000D0100080F010008110100080000000098
:1000200000000000000000000000000013010008B4
:100030001501000800000000170100081901000860
:100040001B0100081B0100081B0100081B01000820
:100050001B0100081B0100081B0100081B01000810
:100060001B0100081B0100081B0100081B01000800
:100070001B0100081B0100081B0100081B010008F0
:100080001B0100081B0100081B0100081B010008E0
:100090001B0100081B0100081B0100081B010008D0
:1000A0001B0100081B0100081B0100081B010008C0
:1000B000B90E00081B0100081B0100081B01000805
:1000C0001B0100081B0100081B0100081B010008A0
:1000D0001B0100083D1000081B0100081B0100085F
:1000E0001B0100081B0100081B010008DFF80CD0F1
:1000F00000F018F800480047D91200082805002031
:100100000648804706480047FEE7FEE7FEE7FEE7B1
:10011000FEE7FEE7FEE7FEE7FEE7FEE775090008FB
:10012000ED000008064C074D06E0E06840F00103D2
:1001300094E8070098471034AC42F6D3FFF7DAFF93
:10014000D4150008F41500080549096821F00801D4
:10015000034A1160114609680143116070470000AD
:10016000002002400549096821F01001034A11608E
:1001700011460968014311607047000000200240E9
:1001800001460020034A106800F038000843106060
:10019000704700000020024008B501211D2000F03A
:1001A0003BF901210A4800F0A3F80820ADF800004F
:1001B00010208DF8030001208DF8020069460548E3
:1001C00000F00AF80821034800F0DCF808BD000040
:1001D00000023000000801402DE9F04102460025F0
:1001E0000026002000230024002791F803C00CF013
:1001F0000F0591F803C00CF0100CBCF1000F03D0F8
:1002000091F802C04CEA050591F800C0BCF1000F5E
:1002100031D0146800202BE04FF0010C0CFA00F3F1
:10022000B1F800C00CEA03069E4220D183004FF0D3
:100230000F0C0CFA03F7BC4305FA03FC4CEA040468
:1002400091F803C0BCF1280F06D14FF0010C0CFA55
:1002500000FCC2F814C00AE091F803C0BCF1480FDA
:1002600005D14FF0010C0CFA00FCC2F810C0401C84
:100270000828D1D31460B1F800C0BCF1FF0F34DD01
:10028000546800202EE000F1080C4FF0010808FA35
:100290000CF3B1F800C00CEA03069E4221D18300A2
:1002A0004FF00F0C0CFA03F7BC4305FA03FC4CEAC1
:1002B000040491F803C0BCF1280F05D100F1080C2B
:1002C00008FA0CF8C2F8148091F803C0BCF1480F8A
:1002D00007D100F1080C4FF0010808FA0CF8C2F839
:1002E0001080401C0828CED35460BDE8F081000087
:1002F000F0B50A46002300240021002500F0004646
:10030000B6F1004F02D11D4EF16901E01B4E71683C
:10031000C0F3034583B200F44016B6F5401F08D180
:1003200021F07061154E766826F07066134F7E607E
:1003300012E000F48016B6F5801F06D1032606FAF7
:1003400005F4A14341F0706106E0460D360103FA61
:1003500006F6B14341F0706122B1460D360103FA51
:1003600006F6314300F00046B6F1004F02D1034ECD
:10037000F16101E0014E7160F0BD0000000001403C
:10038000416170470161704770B5002100230F2261
:10039000C47804B3154C246804F4E064C4F5E06444
:1003A000210AC1F10403CA40447804FA03F18478B5
:1003B0001440214309010E4C0678A155047804F03D
:1003C0001F050124AC4005786D11AD0005F1E02555
:1003D000C5F8004109E0047804F01F050124AC4091
:1003E000044D0678761145F8264070BD0CED00E00E
:1003F00000E400E080E100E029B1064AD26902434E
:10040000044BDA6104E0034AD2698243014BDA61AA
:10041000704700000010024029B1064A9269024369
:10042000044B9A6104E0034A92698243014B9A614A
:10043000704700000010024010B500F029F84FF49A
:10044000803000F0DFF800F055F90220FFF798FE49
:100450000020FFF779FE1020FFF784FE4FF4E01133
:100460004FF4803000F02CF9012000F023F9022035
:1004700000F034F9002000F0B9F84FF4806000F08B
:1004800001F9002000F00AF9002000F0E1F810BDA9
:100490000F48006840F001000D49086008464068B8
:1004A0000C4908400A494860084600680A49084063
:1004B000074908600846006820F480200860084664
:1004C000406820F4FE0048604FF41F0088607047C9
:1004D000001002400000FFF8FFFFF6FE30B50021DB
:1004E0000022002400232D4D6D6805F00C0121B180
:1004F000042905D0082923D105E0294D056022E013
:10050000274D05601FE0254D6D6805F47012234DE1
:100510006D6805F48034022505EB92421CB9214D2B
:10052000554305600BE01D4D6D6805F400351DB1A8
:100530001C4D5543056002E0194D5543056002E02E
:10054000174D056000BF00BF144D6D6805F0F00148
:100550000909154D6B5C0568DD4045600F4D6D6800
:1005600005F4E061090A104D6B5C4568DD4085606B
:100570000A4D6D6805F46051C90A0B4D6B5C456806
:10058000DD40C560054D6D6805F44041890B074DA0
:100590006B5CC568B5FBF3F5056130BD001002402A
:1005A00000127A0000093D00000000201000002029
:1005B00010B501460022002300204A11012A02D171
:1005C000094C236806E0022A02D1074C236A01E0A5
:1005D000054C636A01F01F02012494401C400CB1D9
:1005E000012000E0002010BD001002400146002064
:1005F000034A506820F0F000084350607047000044
:10060000001002401149096821F480310F4A11603D
:100610001146096821F480211160B0F5803F03D0B4
:10062000B0F5802F0ED106E00849096841F4803109
:10063000064A116007E00549096841F4A021034A10
:10064000116000E000BF00BF7047000000100240D2
:1006500000210B4A11700A4A203A82F82010012822
:1006600002D0042808D103E00121054A117004E0FA
:100670000521034A117000E000BF00BF7047000071
:100680002010024001460020034A506820F4E06038
:1006900008435060704700000010024001460020EF
:1006A000034A506820F4605040EAC100506070472F
:1006B00000100240014908667047000000004242F5
:1006C00002460020044B586820F47C1042EA0103E3
:1006D0001843014B5860704700100240014600204B
:1006E000034A506820F00300084350607047000040
:1006F0000010024038B5002000900024002500BF03
:100700003120FFF755FF05460098401C00900098E7
:10071000B0F5A06F01D0002DF2D03120FFF748FFD7
:1007200008B1012400E00024204638BD2DE9F04145
:100730000446B4F802C04FF064080CFB08FCB4F89F
:1007400000809CFBF8FC0CF0FF06B4F804C04FF0EE
:1007500064080CFB08FCB4F800809CFBF8FC0CF06F
:10076000FF00B4F806C04FF064080CFB08FCB4F8B6
:1007700000809CFBF8FC0CF0FF02864205DA9042F8
:1007800001DA944606E0844604E0964201DA944693
:1007900000E0B4466346864205DD904201DD9446A2
:1007A00006E0844604E0964201DD944600E0B4464B
:1007B0006746A3EB070C0CF0FF0503EB070C0CEBF3
:1007C000DC78C8F3470881F80380BB4206D14FF0BC
:1007D000000CA1F800C081F802C054E0B34219D166
:1007E00090420ADBA0EB020CCCEB0C1C4FEA8C0C09
:1007F0009CFBF5FCA1F800C029E0A0EB020CCCEBBF
:100800000C1C4FEA8C0C9CFBF5FC0CF5B47CA1F89D
:1008100000C01CE083420CD1A2EB060CCCEB0C1CFC
:100820004FEA8C0C9CFBF5FC0CF1780CA1F800C095
:100830000DE093420BD1A6EB000CCCEB0C1C4FEA65
:100840008C0C9CFBF5FC0CF1F00CA1F800C091F8AD
:1008500003C0BCF1320F0ADC4FF0640C05FB0CFC4A
:1008600003EB07089CFBF8FC81F802C00BE04FF09B
:10087000640C05FB0CFC03EB0708C8F1C8089CFBE3
:10088000F8FC81F802C0BDE8F08110B500F002F874
:1008900010BD00000CB500200190009033480068A6
:1008A00040F480303149086000BF3048006800F4EF
:1008B000003000900198401C0190009818B90198F0
:1008C000B0F5A06FF1D12948006800F4003010B1F4
:1008D0000120009001E0002000900098012843D101
:1008E0002348006840F0100021490860084600686D
:1008F00020F0030008600846006840F0020008602D
:100900001A484068194948600846406848600846E7
:10091000406840F4806048600846406820F47C10DD
:1009200048600846406840F4E8104860084600689F
:1009300040F08070086000BF0C48006800F0007054
:100940000028F9D00948406820F0030007494860B2
:100950000846406840F00200486000BF0348406815
:1009600000F00C000828F9D10CBD00000010024076
:100970000020024010B51348006840F00100114902
:10098000086008464068104908400E49486008461B
:1009900000680E4908400B4908600846006820F4CA
:1009A000802008600846406820F4FE0048604FF44C
:1009B0001F008860FFF769FF4FF00060044908607E
:1009C00010BD0000001002400000FFF8FFFFF6FE1F
:1009D00008ED00E008B501200090012269460020E2
:1009E00000F04AFA0320009001226946002000F03E
:1009F00043FA08BD38B5044600200090022269463B
:100A0000204600F016FA9DF800009DF8011040EA1B
:100A10000125284638BD38B5044601200090012242
:100A20006946132000F005FA9DF8000000F001006F
:100A300088B11420FFF7DEFF20801620FFF7DAFFD1
:100A400060801820FFF7D6FFA0801A20FFF7D2FFA2
:100A5000E080012038BD0020FCE7000010B54FF415
:100A600080611248FFF78CFC1048001D006820F4DC
:100A700070400E49091D08600846006840F4405067
:100A80000860C9140948FFF77BFC142000F010FC33
:100A90004FF480610548FFF775FC142000F008FC56
:100AA0004FF480610148FFF76BFC10BD000C014062
:100AB00008B54FF44060ADF8000010208DF8030039
:100AC00003208DF8020069460448FFF785FB4FF4C8
:100AD00040610248FFF756FC08BD0000000C0140D1
:100AE00010B54FF480611248FFF74AFC1048001D12
:100AF000006820F470400E49091D0860084600682F
:100B000040F440500860C9140948FFF73BFC14202A
:100B100000F0CEFB4FF480610548FFF733FC142052
:100B200000F0C6FB4FF480610148FFF729FC10BDBF
:100B3000000C01402DE9F04107460D461646984647
:100B4000002400F09DF8012101EB4701C8B200F03C
:100B500055F800F0EDF800BF0DE0701EA04204D182
:100B6000002000F011F8285503E0012000F00CF8F7
:100B70002855601CC4B2B442EFDBB8F1010F01D1BB
:100B800000F0AAF8BDE8F08170B5054600241A48C7
:100B9000006820F47040184908600846006840F476
:100BA0000040086000261DE04FF480611248001FDD
:100BB000FFF7E6FB142000F07BFB4FF480610E484A
:100BC000001FFFF7DFFB6006040E0B48001D0068E6
:100BD00000F4006008B1601CC4B20A2000F068FB99
:100BE000701CC6B2082EDFDB15B9FFF779FF01E0F4
:100BF000FFF734FF204670BD040C014070B5044679
:100C00001E48006820F470401C49086008460068CF
:100C100040F44050086009151848001FFFF7B0FB6A
:100C2000002528E00120B0EBD41F05D1C1021348F4
:100C3000001FFFF7A7FB05E04FF400610F48001FFE
:100C4000FFF79EFB6006040E142000F031FB4FF40A
:100C500080610A48001FFFF795FB142000F028FB75
:100C60004FF480610548001FFFF78AFB142000F055
:100C70001FFB681CC5B2082DD4DB70BD040C0140FD
:100C800010B51448006820F4704012490860084606
:100C9000006840F440500860C9140E48001FFFF778
:100CA00071FB4FF480610B48001FFFF76BFB28209E
:100CB00000F0FEFA4FF400610648001FFFF760FBEA
:100CC000282000F0F5FA4FF480610248001FFFF77A
:100CD00057FB10BD040C014010B51448006820F407
:100CE0007040124908600846006840F440500860AF
:100CF00009150E48001FFFF743FB4FF400610B4836
:100D0000001FFFF73DFB282000F0D2FA4FF480616E
:100D10000648001FFFF736FB4FF400610348001F31
:100D2000FFF730FB282000F0C3FA10BD040C01408F
:100D300010B500241948006820F470401749086075
:100D40000846006840F400400860C9141348001FBA
:100D5000FFF718FB0A2000F0ABFA4FF480610F4850
:100D6000001FFFF70FFB0A2000F0A2FA06E0641C48
:100D7000FA2C03D9FFF7B0FF012010BD0748001D72
:100D8000006800F400600028F1D14FF4806103484E
:100D9000001FFFF7F5FA0020EFE70000040C014008
:100DA0002DE9F04105460E46174698460024FFF708
:100DB00067FF002141EA4501C8B2FFF71FFFFFF7B7
:100DC000B7FF00BF06E0305DFFF718FFFFF7B0FF89
:100DD000601CC4B2BC42F6DBB8F1010F01D1FFF7D1
:100DE0007BFFBDE8F08108B500200090FFF760FEB2
:100DF00001226946122000F01CF89DF800004D28E1
:100E000001D1012000E000209DF80010442901D10B
:100E1000012100E00021084348B1EB2000F025F853
:100E2000002000F01BF8FFF7D5FD012008BD0020D1
:100E3000FCE737B50C4615469DF8000040F08000F1
:100E400000900023012269462920FFF7A9FF012312
:100E50002A4621462920FFF76DFE3EBD01B501223D
:100E600069460F2000F008F808BD01B50122694667
:100E7000104600F001F808BDFEB506460F461546BF
:100E80000020009001900290002446F080008DF830
:100E90000000012405E0601E385C0DF80400601CB1
:100EA000C4B2AC42F7DD681CC2B2012369462920F6
:100EB000FFF776FFFEBD000010B50121880700F0A6
:100EC00051F8012809D107480068401C054908600D
:100ED00005480068401C044908600121880700F0AB
:100EE00032F810BD1C000020200000207FB5054610
:100EF0000C4601210846FFF77FFA1C208DF8000000
:100F000000208DF801008DF8020001208DF803000B
:100F10006846FFF739FAADF80850ADF804400020F4
:100F2000ADF80600ADF80A0001A94FF0804000F0CE
:100F300033F801221146900700F025F801218807B7
:100F400000F004F87FBDCA430282704721B10288D5
:100F500042F00102028004E002884FF6FE731A405C
:100F60000280704730B50246002000230024158A15
:100F700005EA0103958905EA010413B10CB10120CA
:100F800000E0002030BD1AB183890B43838102E069
:100F900083898B4383817047002202881D4B9842CE
:100FA0000ED01D4B98420BD0B0F1804F08D01B4B98
:100FB000984205D01A4B984202D01A4B984204D15D
:100FC0004FF68F731A404B881A43174B984207D03D
:100FD000164B984204D04FF6FF431A40CB881A4371
:100FE00002808B8883850B8803850A4B98420BD03F
:100FF000094B984208D00E4B984205D00D4B9842B1
:1010000002D00D4B984201D10B7A038601238382D3
:1010100070470000002C01400034014000040040F3
:1010200000080040000C0040001000400014004088
:1010300000400140004401400048014010B540F22A
:1010400025511D4800F04AF810B31B4800F002F982
:10105000C4B21A48008800F40040C8B91748008894
:1010600000F4804060B10A2C03D0002013490880AE
:1010700020E01248008840F400401049088019E040
:101080000D2C06D10D48008840F480400B490880A3
:1010900010E00A480088C0F30D0009490C540748C5
:1010A0000088401C0549088008460088C72801DDE3
:1010B0000020088010BD000000380140180000200A
:1010C0006000002021B1828942F40052828104E054
:1010D00082894DF6FF731A408281704770B50246CF
:1010E000002400230025002040F66A16B14200D1FA
:1010F00000BFC1F3421501F01F03012606FA03F3F6
:10110000012D02D19689334006E0022D02D1168AC4
:10111000334001E0968A33400C12012606FA04F4AB
:101120001688344013B10CB1012000E0002070BDDE
:10113000F0B50346002400260025002040F66A177B
:10114000B94200D100BF1846C1F3421401F01F0696
:10115000012707FA06F5012C01D10C3004E0022C1E
:1011600001D1103000E014301AB107682F43076036
:1011700002E00768AF430760F0BD00002DE9F047CB
:1011800086B005460E460024A24600BFA1460027B1
:10119000B08900B100BF2F462C8A4CF6FF70044086
:1011A000F08804432C82AC894EF6F3100440B088DA
:1011B00031890843718908430443AC81AC8A4FF6F6
:1011C000FF400440B0890443AC8201A8FFF786F9D0
:1011D0001F48874202D1DDF810A001E0DDF80CA025
:1011E000A88900F4004040B10AEBCA0000EB0A10E5
:1011F00031684900B0FBF1F807E00AEBCA0000EBE8
:101200000A1031688900B0FBF1F86420B8FBF0F0F7
:1012100004012009642101FB1089A88900F4004021
:1012200040B1322000EBC900B0FBF1F000F0070044
:10123000044308E0322000EB09106421B0FBF1F018
:1012400000F00F0004432C8106B0BDE8F0870000D9
:101250000038014001468888C0F30800704700004C
:10126000014A024900F013B8BD1200081400002022
:1012700002E008C8121F08C1002AFAD1704770475F
:10128000002001E001C1121F002AFBD170472DE9A7
:10129000F04116460F460446002503E03946B047A4
:1012A000641C6D1C20780028F8D12846BDE8F08128
:1012B00000BF011EA0F10100FBD1704700BF054A2D
:1012C000128802F04002002AF9D0C2B2014B1B1D65
:1012D0001A80704700380140FFF7AEF8FEF75CFF58
:1012E0004FF4E13000F026F96648FFF7E1FFFFF721
:1012F0007AFD65A0FFF7B4FF472140F2E730FFF722
:10130000F5FDBDE064480068C82808D300206249A4
:1013100008606248006880F0080060490860604822
:1013200000683228EDD300205D4908605D48FFF772
:1013300072FB5D495B48FFF7F9F95A4840885B4901
:101340000988884221DD57484088594909888842E0
:101350001BDA5448808857490988884215DD51486E
:1013600080885549098888420FDA4E48C088534919
:101370000988884209DD4B48C0885149098888425C
:1013800003DA50A0FFF76CFF7AE0464840884F49E7
:101390000988884221DD434840884D4909888842B0
:1013A0001BDA404880884B490988884215DD3D4852
:1013B00080884949098888420FDA3A48C0884749F5
:1013C0000988884209DD3748C0884549098888422C
:1013D00003DA44A0FFF744FF52E032484088434913
:1013E0000988884221DD2F48408841490988884280
:1013F0001BDA2C4880883F490988884215DD294836
:1014000080883D49098888420FDA2648C0883B49D0
:101410000988884209DD2348C088394909888842FB
:1014200003DA38A0FFF71CFF2AE01E48408837493E
:101430000988884221DD1B4840883549098888424F
:101440001BDA1848808833490988884215DD154819
:1014500080883149098888420FDA1248C0882F49AC
:101460000988884209DD0F48C0882D4909888842CB
:1014700003DA2CA0FFF7F4FE02E02CA0FFF7F0FE49
:1014800040E70000FFFF1F00496E697469616C202E
:101490004F4B210D0A0000001C0000200C080140E9
:1014A00020000020240000202C000020300000201C
:1014B00032000020340000203600002038000020D8
:1014C0003A000020477265656E0A00003C0000206B
:1014D0003E00002040000020420000204400002088
:1014E000460000205265640A000000004800002009
:1014F0004A0000204C0000204E0000205000002038
:1015000052000020426C75650A0000005400002063
:1015100056000020580000205A0000205C000020E7
:101520005E00002059656C6C6F770A004F74686527
:10153000720A000010B586B00446012144F204008E
:10154000FEF76AFF4FF40070ADF8140003208DF829
:10155000160018208DF8170005A91C48FEF73CFE60
:101560004FF48060ADF8140004208DF8170005A931
:101570001648FEF731FE25208DF8000003208DF877
:1015800001008DF8020001208DF803006846FEF787
:10159000FBFE01940020ADF80800ADF80A00ADF89C
:1015A0000C00ADF810000C20ADF80E0001A90848A1
:1015B000FFF7E4FD012240F225510548FFF7B8FD91
:1015C00001210348FFF77EFD06B010BD0008014071
:1015D00000380140F4150008000000206000000001
:1015E000701200085416000860000020C8040000B3
:1015F000801200080000000001020304010203043D
:1016000006070809020406080000000000000000A8
:1016100000000000000000000000000000000000CA
:101620000000000000009600640020030000960007
:1016300032005E011400C8001400C80096002C019E
:10164000F401E803F401E803F401B00420031405F5
:0416500064005802D8
:04000005080000ED02
:00000001FF
